:1000000000800020C1010000ED010000ED010000B2
:10001000ED010000ED010000ED010000ED01000028
:10002000ED010000ED010000ED010000ED01000018
:10003000ED010000ED010000ED010000ED01000008
:10004000692A0000953C0000ED010000ED01000070
:10005000ED010000ED010000ED010000ED010000E8
:10006000ED010000ED010000ED010000BD3C0000CD
:10007000ED010000ED010000ED010000ED010000C8
:100080008D130000ED010000ED010000ED01000006
:10009000550C0000410C0000ED010000ED010000D6
:1000A000ED010000ED01000089040000ED010000F9
:1000B000ED010000ED01000031210000ED01000024
:1000C000ED010000ED010000ED010000ED01000078
:1000D000ED010000ED010000ED010000ED01000068
:1000E00010B5054C237833B9044B13B10448AFF372
:1000F00000800123237010BD90000020000000004C
:1001000018A000000C4B43B10C480D4910B5AFF3DB
:1001100000800C48036823B910BD0A48036833B94E
:100120007047094B002BF7D0BDE810401847064B2D
:10013000002BF5D0184700BF0000000018A00000F9
:10014000940000208C00002000000000154B002BC4
:1001500008BF134B9D46A3F5803A00218B460F46FE
:100160001348144A121A03F07CFE0F4B002B00D0E8
:1001700098470E4B002B00D0984700200021040028
:100180000D000D48002802D00C48AFF3008003F0AA
:100190001FFE2000290000F02BF803F0F3FD00BF44
:1001A00000000800008000200000000000000000A7
:1001B00090000020800600200000000000000000E9
:1001C000064880470649074A074B9A42BEBF51F886
:1001D000040B42F8040BF8E7FFF7B8FFE12F00002B
:1001E00024A000000000002090000020FEE700BFD7
:1001F00008B500F04BFC08BD2DE9F04383B00024A6
:1002000002A800F8044D02F06DFC052002F0CAFAC5
:1002100001221146032002F00FFB0521112002F0FC
:100220003DFB0121112002F045F801221146204634
:1002300002F002FB3B4D0521284602F02FFB012175
:10024000284602F067FA0121374802F063FA02F00B
:10025000B1FE0121354802F05DFA23460422114621
:10026000032002F08DFC234604220521032002F026
:1002700087FC2F4B0821596310255D6320245C63A4
:1002800040225A634FF4805018614FF400561E61AB
:100290004FF4804018614FF40068C3F834805E6307
:1002A00058634FF0010EC3F87CE00227DF67042695
:1002B000DE67D967DD67DC67DA678020D8674FF4CF
:1002C000807CC3F87CC09A659865C3F8A0E0C3F849
:1002D000A070C3F8A060C3F8A0104FF48069C3F801
:1002E000C490C3F8C480C3F8C4E0C3F8C470C3F8B2
:1002F000C460C3F8C410C3F8C450C3F8C440C3F802
:10030000C420C3F8C400C3F8C4C000F0EBFF01F080
:1003100061FE00F023F803F0B7F800F07FF803B0B7
:10032000BDE8F083408104000043020000D20400D5
:100330000060004008B500F081FFBFF34F8F054912
:10034000CA6802F4E062044B1343CB60BFF34F8FE3
:1003500000BFFDE700ED00E00400FA0508B501214B
:100360000D4802F0D7F9002304220521012002F0F4
:1003700007FC002304220321052002F001FC0023D6
:1003800004220B21052002F0FBFB0023042206219E
:10039000012002F0F5FB08BD00D204002022014B31
:1003A0005A637047006000402022014B9A637047F7
:1003B000006000404022014B5A63704700600040DB
:1003C0004022014B9A637047006000404FF4006286
:1003D000014BC3F8CC207047006000400822024B5C
:1003E000C3F8C420704700BF0060004041F23422CF
:1003F000014B1A80704700BFAC000020024BD86848
:10040000C04380B2704700BF00200840024AD36A50
:1004100043F00103D36270470020084010B584B058
:100420000221154802F03AFA144C0121204601F04D
:1004300041FF0121204602F06DF9114C204602F0E7
:100440004AFC002301930293CDF80B3001A920460A
:1004500002F00BFC0B4B402283F81A234FF0806212
:10046000C3F880211A600121204602F0EDFBFFF75E
:10047000CDFF04B010BD00BF02001A0060261400BA
:100480000020084000E100E000B583B00D4AD36AC7
:10049000126A134013F0010F09D00122094B9A622E
:1004A000094B1B6803B1984703B05DF804FB074B89
:1004B000019380230093064B064A0021012000F09F
:1004C0008DFFF1E700200840B0000020345E0000FE
:1004D000245E0000305E000070B582B00E4803F06C
:1004E00001FC10B9012002B070BD0C4D0C4C0D4E3A
:1004F00001961C2300932B4622460021012000F088
:100500006DFF01961D2300932B46224600210120FA
:1005100000F064FFFFF70EFF445E00006E5E000017
:10052000745E00007C5E000000B583B0094803F0F3
:10053000D9FB18B9012003B05DF804FB064B019309
:100540001C230093054B064A0021012000F046FFC2
:10055000FFF7F0FE985E00007C5E0000C35E0000C6
:10056000745E000008B51A4B1B78092B2ED8DFE803
:1005700003F005090D1115191D21252900F0A0F81A
:10058000012008BD00F0BAF8012008BD00F0D4F841
:10059000012008BD00F0EEF8012008BD00F008F9C8
:1005A000012008BD00F022F9012008BD00F03CF94F
:1005B000012008BD00F056F9012008BD00F070F9D7
:1005C000012008BD00F08AF9012008BD002008BD07
:1005D000B400002000B583B0094803F083FB18B9CC
:1005E000012003B05DF804FB064B01934523009303
:1005F000054B064A0021012000F0F0FEFFF79AFEAD
:10060000D45E00007C5E0000125F0000745E00009B
:10061000012070470120704700B585B00346144A99
:1006200092E803000290ADF80C10090C8DF80E1042
:10063000002B0FDB0D2B00DD0D23DBB20D4AD35C4D
:100640008DF80D3002A803F04DFB28B9012005B04C
:100650005DF804FB0023EDE7074B01935B23009358
:10066000064B074A0021012000F0B8FEFFF762FEAA
:10067000CC5E0000E85E00007C5E0000125F0000BF
:10068000745E00000020704700B583B00DF10703D1
:1006900001220021572003F0B1F99DF8070040081E
:1006A0007C3040B203B05DF804FB0000092803D899
:1006B000024B18700120704700207047B4000020E2
:1006C00000B583B0094803F00DFB10B903B05DF825
:1006D00004FB074B019314230093064B064A0021A9
:1006E000012000F07BFEFFF725FE00BF1C5F00002D
:1006F0007C5E00001C650000745E000000B583B0E5
:10070000094803F0EFFA10B903B05DF804FB074B9A
:10071000019314230093064B064A0021012000F0A8
:100720005DFEFFF707FE00BF246500007C5E000051
:10073000246B0000745E000000B583B0094803F02C
:10074000D1FA10B903B05DF804FB074B01931423F1
:100750000093064B064A0021012000F03FFEFFF700
:10076000E9FD00BF2C6B00007C5E00002C710000D6
:10077000745E000000B583B0094803F0B3FA10B905
:1007800003B05DF804FB074B019314230093064B61
:10079000064A0021012000F021FEFFF7CBFD00BF3B
:1007A000347100007C5E000034770000745E00004D
:1007B00000B583B0094803F095FA10B903B05DF8AD
:1007C00004FB074B019314230093064B064A0021B8
:1007D000012000F003FEFFF7ADFD00BF3C770000F5
:1007E0007C5E0000047D0000745E000000B583B0F4
:1007F000094803F077FA10B903B05DF804FB074B22
:10080000019314230093064B064A0021012000F0B7
:10081000E5FDFFF78FFD00BF0C7D00007C5E000052
:10082000D4820000745E000000B583B0094803F074
:1008300059FA10B903B05DF804FB074B0193142378
:100840000093064B064A0021012000F0C7FDFFF788
:1008500071FD00BFDC8200007C5E0000A488000007
:10086000745E000000B583B0094803F03BFA10B98C
:1008700003B05DF804FB074B019314230093064B70
:10088000064A0021012000F0A9FDFFF753FD00BF3B
:10089000AC8800007C5E0000748E0000745E000076
:1008A00000B583B0094803F01DFA10B903B05DF834
:1008B00004FB074B019314230093064B064A0021C7
:1008C000012000F08BFDFFF735FD00BF7C8E00009E
:1008D0007C5E000044940000745E000000B583B0AC
:1008E000094803F0FFF910B903B05DF804FB074BAA
:1008F000019314230093064B064A0021012000F0C7
:100900006DFDFFF717FD00BF4C9400007C5E0000FA
:10091000149A0000745E0000F0B5D5B0044622AD14
:10092000514E0FCE0FC533682B80B62200210DF13A
:100930009A0003F096FAA37813F0010F24D1A3785C
:1009400013F0020F2AD1A37813F0040F31D1A3784A
:1009500013F0080F3ED1A37813F0100F45D1A37800
:1009600013F0200F4BD1A37813F0400F65D194F909
:100970000230002B6CDB22A803F09DFD014622A86B
:1009800000F078FC55B0F0BDA288384910A803F0FB
:100990005FFD10A922A803F07FFDD0E7D4F8062060
:1009A000334910A803F054FD10A922A803F074FDE8
:1009B000C9E7D4F80A20D4F80E3000920193019AC6
:1009C000009B2C4910A803F043FD10A922A803F0B6
:1009D00063FDBCE7D4F81220274910A803F038FDC6
:1009E00010A922A803F058FDB5E7E28A234910A810
:1009F00003F02EFD10A922A803F04EFDAFE704F18D
:100A0000180502AF04F1480E3E4628686968AA68D6
:100A1000EB680FC6103537467545F5D1286830604C
:100A200000238DF83C3002AA154910A803F010FDF0
:100A300010A922A803F030FD95E7B4F84C20114925
:100A400010A803F005FD10A922A803F025FD8EE7EC
:100A5000B4F84E200C4910A803F0FAFC10A922A803
:100A600003F01AFD87E700BF1C9A0000EC9B000012
:100A7000FC9B00000C9C00001C9C0000289C0000BB
:100A8000389C0000489C0000549C000080B5B4B025
:100A9000FFF7B2FBFFF7AAFC01F09CFA0026ADF8C5
:100AA000CA608DF8C8608DF8CC60ADF8CE605F2765
:100AB0003A4631461AA803F0D4F94AF6AA23ADF80B
:100AC0006C304BF6BB33ADF86E30ADF870304DF690
:100AD000AD63ADF872304BF6EF6EADF874E0ADF883
:100AE00076E0ADF878304DF6DD53ADF87A30ADF8FC
:100AF0007C304EF6EE63ADF87E3020AC304D0FCD3D
:100B00000FC40FCD0FC40FCD0FC42B682370ADF8E9
:100B1000B1608DF8B3604BF6BA23ADF8B430ADF8E0
:100B2000B6E03A46314602A803F09BF9FF238DF860
:100B30006A3032A800F09EF8224B01934C230093B8
:100B4000214B224A0521012000F048FCFFF746FC1A
:100B500003E002A800F03AFA18BB00F0AFFA01F087
:100B6000C5FA1B4B1B68C01A40F6B7339842F0D940
:100B7000002211461AA800F06DF90028EDD0154B9F
:100B8000019355230093104B104A0521012000F0DA
:100B900025FC1AA8FFF7C0FE01F0A8FA0C4B18605C
:100BA000DBE70D4B01935A230093074B074A0521BE
:100BB000012000F013FC02A8FFF7AEFECDE700BF56
:100BC000E49A0000289B00001A9B0000249B000070
:100BD000B8000020409B0000949B000010B582B03C
:100BE00001F034FF04460DF10701084800F0F6FA61
:100BF00038B90022064B1A70204601F02BFF02B0D4
:100C000010BD9DF80720034B5A63F5E7D400002080
:100C1000BC00002000E0004038B5074BDC69E4B2BE
:100C200001F014FF05462146044800F0AFFA2846BB
:100C300001F010FF38BD00BF00E00040C000002000
:100C400008B50122024B9A64FFF7C8FF08BD00BF38
:100C500000E0004008B5FFF7DFFF024BDA6904222D
:100C60009A6408BD00E000400122014B1A707047F1
:100C700000000020002800F0938070B584B0044686
:100C800002F0EAFB02F0ACFB4C4802F0A3FB237835
:100C90006288039202934A4B0193D2230093494BFB
:100CA000494A0521012000F099FB2378032B79D8CC
:100CB000DFE803F002123B4B6388032B74D8DFE8B4
:100CC00003F00254050800252E460DE000254326BA
:100CD0000AE00025512607E063881BB1012B47D0AD
:100CE000002068E001250026284602F05DFD02F0A4
:100CF000CBFB012002F054FD304602F05DFC0020E9
:100D000002F032FD94F9040005EB85039A002F4BA5
:100D1000134493F9093098424CDB2C4B134493F95C
:100D2000083098422DDD002045E06388032B3DD834
:100D3000DFE803F00221050802250026D4E702259A
:100D40000D26D1E702251126CEE76388032B2FD885
:100D5000DFE803F00214050803250026C4E7032595
:100D60000D26C1E703251126BEE700250426BBE7B3
:100D700001251A26B8E702250426B5E7032504262F
:100D8000B2E702F009FD02F099FC02F0D3FCFFF794
:100D90000BFBFFF70FFB02220D4B1A7001200AE03C
:100DA00000207047002006E0002004E0002002E060
:100DB000002000E0002004B070BD00BF690C0000FE
:100DC000789C0000629C0000249B0000989C00001E
:100DD0007401002010B5A0B00C469DF8011063F31B
:100DE000451162F304116FF386118DF80110002391
:100DF00040F65902ADF80220ADF804308DF800300D
:100E0000224601460DF1070003F006F80F4B1B7850
:100E1000DBB2022B02D0002020B010BD01220B4B10
:100E20001A7000220A4B1A70FFF7B8FA02F002FBA0
:100E3000FFF7C6FAE11D89B2684602F0CDFB02F069
:100E40000BFC02F037FC2046E6E700BF74010020EF
:100E500000000020002874D02DE9F0419EB0044627
:100E6000002944D04AF65523ADF800300DF10203B5
:100E700060881D4625F8020BA07810F0010F02D003
:100E8000A08858801D1DA37813F0020F03D0D4F85A
:100E9000063045F8043BA37813F0040F29D1A3785A
:100EA00013F0080F03D0D4F8123045F8043BA378B0
:100EB00013F0100F02D0E38A25F8023BA37813F059
:100EC000200F1ED1A37813F0400F03D0B4F84C309C
:100ED00025F8023B94F90230002B2DDB13460A461D
:100EE0006846291AFFF776FF1EB0BDE8F0816B4611
:100EF000BEE7234653F80A0F5B6828606B6008352D
:100F0000CDE704F11803284604F14806D3F8008021
:100F1000D3F804C0D3F808E0DF68C0F80080C0F858
:100F200004C0C0F808E0C76010331030B342EDD100
:100F30001B6803603435C5E7B4F84E3025F8023B32
:100F4000CCE7002070470000F0B5A1B005460F4681
:100F500016461D4B93F888308BB9002484B39DF856
:100F6000003063BB9DF8013013F0400F17D1DDF85E
:100F7000022040F659039A4211D0002420E0124C7E
:100F8000002384F88830D4F88420611C684602F07D
:100F900043FF94F900303370D4F88440DEE79DF8C5
:100FA00001303B709DF906303370E4B2073CE4B287
:100FB00022460DF10701284602F02EFF00E0002432
:100FC000204621B0F0BD00BFE80000202DE9F0412F
:100FD000A2B004460DF1030201A902A8FFF7B4FF75
:100FE000014600283DD0002C65D09DF8043013F058
:100FF000100F32D1BDF808306380A37813F0010FD1
:1010000033D0BDF80A20A28003AA13F0020F03D048
:1010100052F8040BC4F8060013F0040F28D113F0A3
:10102000080F03D052F8040BC4F8120013F0100F8D
:1010300002D032F8020BE08213F0200F20D113F01F
:10104000400F03D032F8020BA4F84C0013F0800FCD
:1010500007D01388A4F84E3003E0BDF80830238091
:101060000021084622B0BDE8F0810DF10A02CCE76C
:1010700015685068C4F80A50C4F80E000832CEE76C
:10108000104604F1180502F13006D0F80080D0F8BF
:1010900004C0D0F808E0C768C5F80080C5F804C0EF
:1010A000C5F808E0EF6010301035B042EDD10068AF
:1010B00028603432C3E70021D3E700001C4B1B78C3
:1010C000002B33D000B585B00022194B1A70194B94
:1010D0001B78DBB2012B04D0022B0ED005B05DF8DB
:1010E00004FB02F0EBFA02F025FBFFF75DF9FFF7D6
:1010F00061F902220F4B1A70F0E70F480DF10E0351
:1011000001930DF10F0300930346802200F1840147
:10111000013002F015FB9DF80E30002BDED00122CD
:10112000054B83F88820FFF751F9D7E7704700BFD8
:101130000000002074010020E800002008B548B13C
:1011400071B19AB10160426000228260C1600161A8
:10115000012008BD084B094A1021094802F0F4FD9E
:10116000084B064A1121064802F0EEFD064B034AE1
:101170001221034802F0E8FDE89C0000249D0000D5
:10118000F49C0000049D0000109D000008B5A0B173
:10119000034680685A68904215D2DA6811709A68DE
:1011A00001329A60DA680132DA60186859680144DD
:1011B0008A420AD3D860012008BD054B054A512157
:1011C000054802F0C1FD002008BD012008BD00BF98
:1011D000E89C0000349D0000F49C000008B5A0B11C
:1011E0000346C1B18268E2B1026912780A7082686E
:1011F000013A826002690132026100685968014463
:101200008A4210D31861012008BD084B084A6021AA
:10121000084802F099FD084B054A6121054802F093
:1012200093FD002008BD012008BD00BFE89C000020
:10123000489D0000F49C00002C5E000000B583B0C7
:1012400001F002FC08E0094B1B6913F0400FFAD0D3
:101250009DF80720054B5A630DF107010448FFF77D
:10126000BDFF0028EFD103B05DF804FB00C40040CF
:101270007801002070B519B106460D46002411E032
:101280000A4B0B4AAA210B4802F05EFD72B6315D93
:101290000948FFF77BFF62B6084AD36C43F00203AC
:1012A000D3640134AC42F1D370BD00BF749D000023
:1012B000989D0000809D00007801002000C400403F
:1012C00008B5014672B60548FFF760FF62B6044AEA
:1012D000D36C43F00203D36408BD00BF7801002043
:1012E00000C4004030B587B001211F4801F012FA58
:1012F00001211E4801F00EFA6C461D4D0FCD0FC4A2
:1013000095E8030084E803004FF4806219491A4805
:10131000FFF714FF012304220721032001F030FC12
:101320000121164801F0F6F9154C6946204601F0F6
:1013300079FD40F202236365124BA02283F810234B
:101340000222A2644FF48031C3F88011E26C42F0B3
:101350000202E26419600421204601F035FD0A48CA
:1013600003F05EF807B030BD00D2040040810400F5
:101370005C9D00008C010020780100200012040018
:1013800000C4004000E100E0249C00000E4AD36C41
:10139000126C134013F0020F00D1704700B583B0F8
:1013A0000DF107010948FFF719FF30B19DF807203B
:1013B000054B5A6303B05DF804FB034AD36C23F07A
:1013C0000203D364F6E700BF00C4004078010020A8
:1013D00000B9704708B5FFF773FF08BDF0B587B0D7
:1013E0000F4616461D4600F081FE0E4C0E4B53F87C
:1013F0002730039302960C9B0193009503460B4AFA
:101400000021204600F0BCFD0EAB05930D9A002193
:10141000204600F0CDFD064A0021204600F0B0FD38
:1014200007B0F0BDD1130000A89D0000C89D0000CA
:10143000249C0000704708B50B684968984708BDB0
:101440002DE9F04F83B080460091934601930C9EA6
:101450000D9C9DF838500F991098119FBDF8483099
:1014600002E030223255013413F0020A07D18442DF
:1014700005D21F2CF5D902E030223255013403F099
:101480000302012A03D1BC4201D21F2CF4D913F06C
:10149000100F0CD0844217D0BC4215D010291FD099
:1014A000102926D01F2C02D8302131550134BC42DE
:1014B00028D01F2C03D85DB32D2333550134002AC7
:1014C0003FD05A46002549E0002CE7D0601E102985
:1014D00001D00446E2E708B1023CDFE70446DDE75D
:1014E00013F0800FDCD11F2CDAD87820305501346E
:1014F000D6E713F0800FD5D01F2CD3D85821315503
:101500000134CFE715B913F00C0FD2D0013CD0E76E
:1015100013F0040F03D02B2333550134CFE713F01E
:10152000080FCCD0202333550134C8E702F101095C
:10153000019B00992020C04701354A46BD42F5D3A2
:10154000C0E725465A46F9E7601B013802F1010958
:10155000019B0099305CC04701354A46AC42F3D844
:10156000BAF1000F06D109E0541C019B009920201C
:10157000C0472246A2EB0B039F42F5D8104603B0AA
:10158000BDE8F08F2DE9F04190B0169D189FBDF891
:101590006CE01EF0200F02D03DB3002616E00026BE
:1015A00014E01EF0800F1DD04FF041084444E4B217
:1015B0000A3CE4B20DF14008464406F8204CB5FB65
:1015C000F7F5A5B16646BCF11F0F10D8B5FBF7F4CF
:1015D00007FB1454E4B206F1010C092CE1D83034B5
:1015E000E4B2E7E74FF06108E0E74FF0000CCDF818
:1015F00018E01A9C0594199C049403979DF85C408C
:101600000294CDF804C008AC0094FFF719FF10B0A5
:10161000BDE8F0812DE9F04F95B009900A910B9249
:101620009B46DDE91E67DDF88880DDF88C90BDF80B
:1016300098A01AF0200F04D056EA07032DD00024FA
:101640001BE0002419E01AF0800F24D041221A4434
:10165000D2B20A3AD2B214AB1C4404F8202C42464F
:101660004B463046394604F0F3F906460F4656EA33
:10167000070313D02C461F2D10D842464B46304648
:10168000394604F0E5F9D3B2651C092BDBD803F128
:101690003002D2B2DFE76122D9E70025CDF818A0E9
:1016A000259B0593249B0493CDF80C809DF88030F6
:1016B000029301950CAB00935B460B9A0A9909982B
:1016C000FFF7BEFE15B0BDE8F08F0000000000007F
:1016D0002DE9F04F2DED028B8FB00746019190461A
:1016E00004931C9DDDF87490BDF878B000220023AF
:1016F000DDE91A0104F03CF990B9002305931BF0D1
:10170000200F00D1062500241F2C14D8092D12D932
:101710000EAB2344302203F8202C013D0134F3E7C3
:10172000DDE91A230020002103F0FCFCCDE91A01B9
:1017300001230593E3E7DDE91A0104F041F90646C8
:1017400003F03EFE02460B46DDE91A0103F0EAFC17
:10175000914B03EBC50393ED008B53EC182B03F077
:1017600095FECDE9020104F053F9824603F018FE1C
:1017700002460B46DDE9020103F0D4FCCDE902018B
:101780000022864B04F012F9002843D00AF1010A26
:10179000504603F005FE02460B4651EC180B04F0D0
:1017A000F1F810B101364FF0000A79A3D3E9002314
:1017B000DDE91A0104F0FAF8002840F0DF80002D7E
:1017C00046D1304603F0FCFD02460B46DDE91A0126
:1017D00003F0A8FCCDE902010022704B04F0E6F80A
:1017E00048B301361F2C69D8611C6D4A82FB063252
:1017F000F317C3EBA2031A4603EB83035800331A13
:1018000030330EA8044404F8203C1646002A4DD07C
:101810000C46E7E70022614BDDE9020104F09EF887
:101820000028C2D0BAF1000F02D01AF0010FBCD0CC
:101830000AF1010AB9E70022584BDDE9020104F080
:101840008DF80028CED016F0010FCBD00136C9E7B5
:101850001F2C1DD8013D611C524BA3FB0A23DB0842
:101860001A4603EB83035800AAEB000330330EA89B
:10187000044404F8203C92460AB10C46E8E70C46C2
:1018800006E00EAA2244302102F8201C1D46013435
:101890001F2C02D86B1E002DF3D11F2CA2D80EAB2B
:1018A00023442E2203F8202C01349BE70C4605E04C
:1018B0000EAB2344302203F8202C01340BF0030339
:1018C000012B03D14C4501D21F2CF1D94C4511D02D
:1018D0001F2C07D8059AA2B10EAA22442D2102F886
:1018E000201C013463B342460025DDF80480DDF896
:1018F00010A034E0059A12B91BF00C0FE8D0013C9F
:10190000E6E71BF0040F06D00EAA22442B2102F8B2
:10191000201C0134E6E71BF0080FE3D00EAA224496
:10192000202102F8201C0134DCE7561C049B01999D
:101930002020B847013532464D45F6D39046D2E7D0
:1019400025464246F8E7601B0138561C0EAB18448A
:101950005346414610F8200CB84701353246AC4298
:10196000F1D81BF0020F06D109E0541C049B019929
:101970002020B84722464A45F7D300E0002210460F
:101980000FB0BDEC028BBDE8F08F00BFAFF300805D
:101990000000C0FFFFFFDF41089E00000000E03FA5
:1019A00067666666CDCCCCCC2DE9F04F8FB0834610
:1019B0000A921D460B9171B100273A4628780028FB
:1019C00000F0CD82252809D0541C0A9B0B99D847DA
:1019D00001352246F2E7DFF8A4B5EDE7013500272F
:1019E00005E047F0010701350126002E3ED02B7897
:1019F000203B102B38D801A151F823F0551A0000D4
:101A0000691A0000691A00005F1A0000691A0000D4
:101A1000691A0000691A0000691A0000691A0000BA
:101A2000691A0000691A00004B1A0000691A0000C8
:101A3000411A0000691A0000691A0000E319000049
:101A400047F0020701350126CFE747F004070135CB
:101A50000126CAE747F0080701350126C5E747F028
:101A6000100701350126C0E70026BEE72978A1F15D
:101A70003003DBB2092B22D92A2922D034460BE0CD
:101A800004EB8404610001355C18303C2B78A3F131
:101A90003001C9B20929F3D92B782E2B1DD02B7810
:101AA000683B122B57D8DFE803F04656B25639563A
:101AB000565656565656535656565656B6003446F1
:101AC000E4E7189B191D18911C68002C01DB0135F7
:101AD000E2E747F002076442F9E747F02007681C95
:101AE0006978A1F13003DBB2092B09D92A290FD07B
:101AF0000546D4E706EB8606710001305E18303EDD
:101B00000378A3F13001C9B20929F3D90546C6E724
:101B1000189B191D18911E680235C0E747F48061B3
:101B2000681C6B786C2B02D005460F4613E047F417
:101B3000846702350FE047F40071681C6B78682BEE
:101B400002D005460F4606E047F44077023502E032
:101B500047F4806701352878A0F12503532B00F264
:101B6000F781DFE813F0ED01F501F501F501F5016D
:101B7000F501F501F501F501F501F501F501F501B5
:101B8000F501F501F501F501F501F501F501F501A5
:101B9000F501F501F501F501F501F501F501F50195
:101BA000F501F501F501F5014501F501F501F50135
:101BB000F501F501F501F501F501F501F501F50175
:101BC000F501F501F501F501F501F5015C00F501FF
:101BD000F501F501F501F501F501F501F501F50155
:101BE0005C005B015C00F5014501F501F5015C005D
:101BF000F501F501F501F501F5015C00D601F501EE
:101C0000F5018801F5015C00F501F5015C0047F084
:101C1000200701359FE747F4806701359BE7782867
:101C20000FD058283ED06F283ED0622804D027F02D
:101C30001007BFB20A2305E027F01007BFB2022346
:101C400000E01023582831D0692804D0642802D03D
:101C500027F00C07BFB269282BD0642829D017F0D1
:101C6000200F40F0908017F4806F40F0A58017F4AB
:101C7000807F40F0B38017F4007F00F0B4801899A3
:101C8000081D189009880597049403960293002371
:101C9000019300910A9B0B995846FFF773FC02468B
:101CA00001358BE61023CDE70823CBE747F080070B
:101CB000CAE717F0200F1FD117F4806F43D117F434
:101CC000807F56D117F4007F58D01899081D1890BE
:101CD000B1F9001081EAE170A0EBE170C90F05973E
:101CE000049403960293019100900A9B0B99584625
:101CF000FFF748FC0246D3E71899073121F0070E99
:101D00000EF108011891DEF804C0DEF8000061460B
:101D100000287CF1000E12DB4FEADC7C0897079468
:101D20000696049300230593CDF808C0CDE9000181
:101D30000A9B0B995846FFF76DFC0246B0E74042FC
:101D40006CEB4C01E8E71899081D1890096881EAC6
:101D5000E170A0EBE170C90F05970494039602931C
:101D6000019100900A9B0B995846FFF70BFC024625
:101D700096E71899081D18900978ABE71899081D7F
:101D800018900968A6E71899073121F0070101F1B9
:101D900008001890D1E90089002108970794069659
:101DA000049305910291CDE900890A9B0B9958464D
:101DB000FFF730FC024673E71899081D1890096870
:101DC00005970494039602930023019300910A9BC4
:101DD0000B995846FFF7D6FB024661E71899081D94
:101DE000189009784FE71899081D189009684AE774
:101DF000189B073323F0070303F108011891D3E977
:101E00000001049703940296CDE900010A9B0B9907
:101E10005846FFF75DFC02460135CFE517F0020793
:101E20000DD001261898031D189302F101080A9B92
:101E30000B990078D8477FB901354246BEE50123AA
:101E40005E1C9C42EED902F101080A9B0B992020EE
:101E5000D84733464246F3E74246771CB44208D996
:101E600002F101080A9B0B992020D8473E464246C2
:101E7000F3E79046E0E7189B191D1891D3F80090FE
:101E8000C84601E008F1010898F80030002BF9D1AC
:101E9000A8EB090817F020030D9302D0B04528BF26
:101EA000B04617F002030C9302D0A2460D9C17E037
:101EB00008F1010A444507D9571C0A9B0B992020B9
:101EC000D847D0463A46F3E7D046A2460D9C07E0F5
:101ED0001E4609F10109571C0A9B0B99D8473A463F
:101EE00099F8000020B1002CF3D0731E002EEFD122
:101EF00054460C9B0BB9013560E508F101064445D9
:101F0000F9D9571C0A9B0B992020D847B0463A466E
:101F1000F3E747F08107189B191D18911B68059777
:101F20000821049103961021029100210191009350
:101F30000A9B0B995846FFF725FB024601353DE504
:101F4000541C0A9B0B992520D8470135224635E5BC
:101F5000541C0A9B0B99D847013522462EE517469B
:101F60000A9A974208D3013A0A9B0B990020D84756
:101F700038460FB0BDE8F08F3A46F5E7351400005B
:101F80000CB400B587B008AA52F8043B0592039040
:101F9000049100924FF0FF3203A90448FFF704FDBB
:101FA00007B05DF804EB02B0704700BF37140000C3
:101FB00000B585B002900391009313464FF0FF32B5
:101FC00002A90348FFF7F0FC05B05DF804FB00BF71
:101FD0003714000030B583B00121194800F09AFB96
:101FE0000221184800F05AFC174C0121204600F04D
:101FF00061F90121204600F08DFB01258DF8045088
:1020000000238DF805308DF8063001A800F07CFE25
:102010000E4CE36923F00703E3610723A36100F09B
:1020200085FEE3692B43E361094B802283F81E237D
:102030004FF08042C3F880211A60284603B030BDBB
:102040000043020002001A00601610000000084061
:1020500000E100E000B583B01D4AD3691269134066
:1020600013F0020F0DD01A4BDA6922F00202DA6186
:1020700002229A61174B1B6803B1984703B05DF8C1
:1020800004FB13F0040F0CD0114BDA6922F00402A8
:10209000DA6104229A61104B1B68002BEED098473E
:1020A000ECE713F0010F07D00122094B9A610B4AAC
:1020B000136801331360E1E7094B01938B2300930D
:1020C000084B094A00210120FFF788F9D6E700BF35
:1020D0000000084090050020940500208C05002099
:1020E000749E0000679E0000305E000030B40E4B0E
:1020F0005B680E4A126803EB02631C460025580118
:10210000D90EC01A61EB05018B0043EA907382007F
:10211000101943EB0501CB0043EA5073C200D00B0A
:1021200040EA434030BC7047000008408C05002066
:1021300008B5FFF78FFF08BD0B4B984208D90B4B32
:10214000984202D90221012204E001210A4601E05D
:1021500000210A46064B1A60064A536823F480732E
:1021600043EA01235360704700366E01006CDC02C5
:102170007800904300800C40014B1868704700BF06
:1021800078009043184B5B6903F4E063B3F5007F7C
:1021900018D00AD9B3F5C06F1DD0B3F5E06F18D0D1
:1021A000B3F5407F07D000207047B3B1B3F5807F0F
:1021B000F9D10E4870470E4B5B6DB3F1985F0ED3AB
:1021C0000C4870470A4B5B6DB3F1985F09D30A481E
:1021D00070470A4870470A4870470A4870470A48DB
:1021E00070470A48704700BF00800C40C0D8A70065
:1021F000A881E00F804F120040B56400406F40019D
:10220000003FAB01809FD50040420F00C0CF6A0065
:10221000134B5B6803F00703012B03D9042B01D098
:10222000012300E000230F4A904208D9A3B1052200
:102230000B494B6823F0070313434B6070470A4A6E
:1022400002440A498A4202D843B10322F0E70BB99B
:102250000022EDE70222EBE70422E9E70122E7E7AB
:1022600000000C400048E801FFDB0BFFFF23F400F7
:1022700010B5074BDC6B41F67132DA6300F030FECB
:102280000021FFF7C5FF14B10022014BDA6310BD36
:1022900000000C4010B5064BDC6B41F67132DA637E
:1022A000FFF7B6FF14B10022014BDA6310BD00BF87
:1022B00000000C4010B50C46C0F30313013B062B85
:1022C00000F2B680DFE803F004B4B4141F378200D4
:1022D0004C1EFFF7CDFF574A136823F4E03343EA5F
:1022E0008434146000F066FE0021FFF7D3FF10BDB8
:1022F000B1FA81F4C4F11F034E4A946824F00F042C
:102300001C43946010BDFFF7B3FF00F0EDFDB0FB80
:10231000F4F0FFF711FFB4FA84F4C4F11F04454A46
:10232000536823F00F031C43546000F043FE002168
:10233000FFF7B0FF10BD404B98421CD003F5AF1320
:1023400098422ED03D4B984272D13A4B5B6D13F0C0
:10235000010F04D1374B1B6D13F0040FFAD1B4FAFF
:1023600084F4C4F11F04334A936E23F0F00343EA6C
:102370000413936610BD2F4B5B6D13F0010F04D156
:102380002C4B1B6D13F0040FFAD1B4FA84F4C4F192
:102390001F04284A936E23F4706343EA0423936670
:1023A00010BD244B5B6D13F0010F04D1214B1B6D4D
:1023B00013F0040FFAD1B4FA84F4C4F11F041D4AD7
:1023C000936E23F003032343936610BD1C4B984286
:1023D00004D003F50433984215D010BD154B5B6D46
:1023E00013F0010F04D1134B1B6D13F0400FFAD102
:1023F000B4FA84F4C4F11F040E4A136F23F00303EC
:102400002343136710BD0B4B5B6D13F0010F04D119
:10241000084B1B6D13F0400FFAD1B4FA84F4C4F1E9
:102420001F04044A136F23F0300343EA04141467B3
:1024300010BD00BF00800C40602614006016100024
:102440007007160000F00F000138062863D8DFE897
:1024500000F004172E6262454F00354BDB6A03F42F
:102460007053B3F5805F58D0B3F5005F04D0B3F577
:10247000006F03D00520704702207047042070478A
:102480002B4B9B6A03F00303022B48D0032B0AD08B
:10249000012B06D0264B9B6A13F4803F05D00A20FF
:1024A0007047032070470620704701207047204B7B
:1024B0009B6A03F00C03082B33D00C2B0AD0042B9F
:1024C00006D01B4B9B6A13F4801F05D00A2070476F
:1024D000032070470620704701207047144B1B688B
:1024E00013F080531FD00BB90120704709207047AB
:1024F0000F4BDB6A03F46033B3F5803F15D0B3F5BF
:10250000003F06D0B3F5004F01D0012070470920ED
:102510007047032070470020704703207047022057
:10252000704702207047072070470220704700BFA5
:1025300000800C4010B50446FFF784FF1D4B9C4201
:1025400008D01D4B9C420AD0032830D8DFE800F0A9
:102550001B0C0F12194B986A00F00300F4E7174B9D
:10256000986AC0F38100EFE700F044FD10BD00F071
:1025700047FD10BD00F01EFD0446FFF7FDFD0130D4
:1025800024FA00F010BD0B4B9C4203D00A4B9C4236
:1025900000D010BD094B9B6A064A944205D0142214
:1025A000D340F6D000F029FD10BD1022F8E700203E
:1025B000EFE700BF02001A0003001C0000800C407F
:1025C00008B50748FFF73EFF072804D0092805D1C2
:1025D00000F08AFC08BDFFF7D5FD08BD002008BD4E
:1025E00006000C0008B50A48FFF72CFF032808D0A6
:1025F000092809D0022801D0002008BD00F000FD04
:1026000008BD00F0F7FC08BD00F06EFC08BD00BF7F
:102610000723220008B500F47810B0F5A01F4ED0B3
:1026200015D8B0F5802F35D00AD9B0F5602F64D019
:10263000B0F5801F3AD0B0F5402F5BD0002008BD28
:1026400028B3B0F5003FF9D100F0B4FC08BDB0F5F7
:10265000D01F27D00CD9B0F5081F51D0B0F5281FD6
:1026600036D0B0F5E01FE9D12748FFF763FF08BD7A
:10267000B0F5B01F35D0B0F5C01FDFD12248FFF74D
:1026800059FF224B1B6FC3F30113D84008BD00F064
:102690002BFC08BD00F028FC1C4B9B6803F00F03CB
:1026A000D84008BD1A48FFF745FF08BD1848FFF796
:1026B00041FF164B9B6EC3F30313D84008BD14486B
:1026C000FFF738FF114B9B6EC3F30323D84008BDBF
:1026D0000F48FFF72FFF0D4B9B6E03F00303D8400D
:1026E00008BD0948FFF726FF084B1B6F03F00303E3
:1026F000D84008BDFFF764FF08BDFFF743FD08BDE4
:10270000FFF770FF08BD00BF03001C0000800C40F5
:1027100002001A0038B504460D46C0F30323013BFE
:10272000092B2ED8DFE803F00519082D2D10132DE5
:102730002D160022134912E01348FFF76BFFFFF735
:10274000FBFC002211490AE00122114907E0102296
:10275000104904E00022104901E000220F49C4F3AF
:10276000043442B10E4B5B6D13F0010F03D10C4BDF
:102770001B6D1A42FBD101F1047104EBC104A400EA
:10278000256038BD08800C400043020040800C40AA
:1027900058800C4060800C4078800C4044800C4095
:1027A00000800C4070B505281FD8DFE800F0031F3B
:1027B00024292D311D4B5D6BEDB204461120FFF72E
:1027C00041FE0646052828D0194AD36823F4FF6342
:1027D00023F0070343EA04232B43D360052E1FD0C5
:1027E0001448FFF717FFFFF7A7FC70BD0F4B5D6B99
:1027F000C5F30725E1E70D4B5D6BC5F30745DCE746
:102800000A4B5D6B2D0ED8E7084B9D6BEDB2D4E7FC
:10281000064B9D6BC5F30725CFE7FFF729FDD3E7EF
:1028200000F0C8FB0021FFF735FDD9E7A881E00FD4
:1028300000800C400043020010B4042826D8DFE8D2
:1028400000F00F0B1503070002240123184610E0C7
:102850002024102305200CE080244023072008E0DA
:102860004FF400744FF48073092002E0082404231D
:10287000032049B107490B6242B1074B03449B0057
:102880001B68002BF9D001E0024B1C625DF8044B81
:10289000704700BF00800C406001E41010B500F0EC
:1028A0000F04631E062B00F29F80DFE803F0044450
:1028B000449D9D8697000239032900F29580DFE848
:1028C00001F00225051F0020042421E05948FFF7EC
:1028D00033FC00F07FFB584B984207D9574A1368E6
:1028E00043F0600313600220044611E0534A13686A
:1028F00023F0600343F0200313600220044607E046
:102900004C48FFF719FC0320012401E001200324B7
:1029100001221146FFF790FFFFF7AAFC474B5C62CC
:102920004748FFF777FEFFF707FC00F043FB002165
:10293000FFF7B0FC10BD0139092955D8DFE801F0D7
:1029400005081054541854545422002001461BE02A
:10295000012211460020FFF76FFF0020022113E043
:10296000012211461046FFF767FF002001210BE00E
:1029700000F020FBFFF7E0FB0122324B1A60002041
:10298000032101E001200021022C0BD02B4CA36A73
:1029900023F4801323F00C0343EA810343EA00533A
:1029A000A36210BD254A936A23F4803323F0030306
:1029B0000B4343EA0043936210BD072902D0092963
:1029C00006D010BD1D4A136823F08053136010BD5C
:1029D0001A4A136843F08053136010BD032912D0C4
:1029E00009291ED0022900D010BD01221146002065
:1029F000FFF722FF4022114B5A62104BDB6A13F49F
:102A0000803FFAD010BD012211461046FFF714FF97
:102A100060220A4B5A62094BDB6A13F4003FFAD07A
:102A200010BD2022054B5A62044BDB6A13F4004FA1
:102A3000FAD0D9E701366E010048E80100800C4069
:102A4000004302001008904372B67047EFF3108005
:102A500072B6704700B962B67047EFF3108072B675
:102A6000704700B962B670472DE9F8431C4B03F577
:102A70008052176841F20C029A581740D3F83880F8
:102A800007EA0804002624E05A68003118BF012133
:102A9000C84764080135CCB114F0010FF9D01049D2
:102AA0008B680122AA4041F208000A50284603EB35
:102AB0000513DB68002BECD0197A81F001021A7241
:102AC000D3F80090B9F1000FDED1E2E727EA08045D
:102AD0000136012E01DC0025DDE7BDE8F88300BFEB
:102AE00000200C40037833B9054B1B6823F0010329
:102AF000034A13607047024B1B6843F00103F7E77A
:102B000000600C4030B4072A22D9A2F108018900E4
:102B100007248C408840144D296821EA04010843A9
:102B200028601249114489000B60114B13449B002B
:102B30009DF808101960012393400E49C1F81C311B
:102B40000D4B13449B009DF80C201A6030BC70475D
:102B50009500072101FA05F4A840084D296821EAEB
:102B6000040108432860DCE704610040400883104A
:102B700060088310006000408008831000610040FE
:102B8000F0B5144652B16BB301258D4000EBC00681
:102B9000B20002F1804202F5C042156107292CD82B
:102BA000284EC5002F18BA00324452688F004FF0EB
:102BB0000F0E0EFA07FE22EA0E0204FA07F73A4356
:102BC0000544AF003E4472605CB973BB012303FA55
:102BD00001F100EBC000830003F1804303F5C04323
:102BE0005961F0BD01258D4000EBC006B20002F135
:102BF000804202F5C0425561D0E7124FC600351839
:102C0000AA003A44956801F18042083A92004FF0D8
:102C10000F0E0EFA02FE25EA0E0504FA02F22A430E
:102C20003518AE003744BA60CEE7012303FA01F14C
:102C300000EBC000830003F1804303F5C04319613A
:102C4000F0BD00BF0060004011B90223436070472F
:102C500001234360704729B1436B002BFCD1012352
:102C6000036370470023036370470B782BB98368B5
:102C700013F0010F01D0022343604B780BB14FF4E6
:102C800080538A780AB143F48063CA780AB143F466
:102C900000630A790AB143F400734A790AB143F434
:102CA00080738A790AB143F04003CA790AB143F0CC
:102CB00080030A7A43EA82034A7A43EA02138A7A51
:102CC000134303600B782BB1836813F0010F01D11C
:102CD00001234360704710B504460121FFF7BBFF95
:102CE0001E2363600021216021616161A161E161B6
:102CF000E1621F23A3622046FFF7ADFF10BD4FF036
:102D0000864318607047000003785BB10123427866
:102D10000AB143F0020382780AB143F00403024A85
:102D2000136070470023F2E70000084008B5002058
:102D3000FFF7E5FF0120FFF7E2FF08BD70B505468C
:102D400016461C46084641B1202C24D009D9402CF7
:102D50001FD0602C1CD1042205E01048FFF75AFC5C
:102D6000F2E7A4B9102206FB02F2530803EB80003D
:102D7000B0FBF2F004380A4B03EA80102B6823F012
:102D800060032B602B681C432C60686170BD70BDB4
:102D900070BD0622E7E70822E5E700BF4081040096
:102DA000C0FF1F0038B505461446084631B101384A
:102DB0006400B0FBF4F00002686138BD0148FFF721
:102DC00029FCF4E740810400CB435B0003F00A03D5
:102DD000C360C1607047000040F6AA63C36000236F
:102DE000036041F20502426083604361C36441F6BF
:102DF000F97282644365094B984209D000238365C8
:102E0000074B984207D003F58063984203D0704780
:102E100000230365F2E70023C365F8E700C0004024
:102E200000C4004038B505460C46FFF7D5FFA37C2B
:102E30001BB12B6843F080432B60E37C1BB1237DE7
:102E400043F01003AB65637B228A1343E28913438B
:102E50006B60237BA26861682846FFF76FFF2378C9
:102E6000EB6038BD38B505460C46FFF7B5FF2B685B
:102E7000228A42F00101A27B0AB34FF480620A4326
:102E800013432B602A68237DDBB14FF000531343BB
:102E90002B60A37C1BB1E37C43F01003AB65237B69
:102EA00043F480536B60A26861682846FFF77AFF9D
:102EB000637B0BB11023EB602378EB6038BD0022FD
:102EC000DDE70023E3E7036913F0800FFBD0C0695F
:102ED000C0B27047036913F0400FFBD041637047E5
:102EE00000487047006CDC02264BDB6A03F4705329
:102EF000B3F5805F3DD0B3F5005F15D0B3F5006F3B
:102F00001CD0204BDB6803F4E063B3F5007F27D0CF
:102F100017D9B3F5806F2FD0B3F5A06F1CD0B3F5E0
:102F2000407F1BD0002001E0174B1868154B1B6831
:102F3000C3F382330133B0FBF3F07047134B1868CF
:102F4000F4E77BB1B3F5807FECD1114B5B6DB3F14E
:102F5000985F13D30F48E9E70F48E7E70F48E5E725
:102F60000F48E3E70A4B5B6DB3F1985F08D30D4858
:102F7000DCE74FF40040D9E70B48D7E70B48D5E72B
:102F80000B48D3E700800C400C0000200800002014
:102F9000A881E00F40B56400003FAB01809FD500E1
:102FA000C0D8A700804F1200406F4001C0CF6A0018
:102FB00040420F0008B5FFF797FF044B5B6803F032
:102FC0000F03D840024B186008BD00BF00800C40C2
:102FD00004000020014B1868704700BF0800002063
:102FE000034AD2F8883043F47003C2F8883070473F
:102FF00000ED00E04FF4004070474FF47A707047E6
:10300000014B1868704700BF0C00002003787D2B2F
:1030100003D801330B8001207047002070477D2AC0
:1030200001D90020704710B5144600F8012B00F0BC
:10303000F3FE621C90B210BD00787047F8B50746E9
:103040000E461546FFF7F8FF044683B2AB4200D99F
:10305000ECB22246791C304600F0DEFE2046F8BD78
:103060000020704708B5FDF70FFB08BD00B583B021
:103070000DF1070301220021512000F0BFFC9DF853
:103080000700C00880F0010000F0010003B05DF807
:1030900004FB000010B584B0FDF7B0F9ADF80200F4
:1030A000554B1B78DBB21A2B04D0202B00F0858007
:1030B00004B010BD514B1B68002B4FD0BDF802303F
:1030C0009BB22E3B9BB2ADF802304D4B1B681BB13F
:1030D000BDF8020080B298474A4B01229A73002241
:1030E0001A801A8115238DF8043000238DF80530DD
:1030F00001AB02221946104600F0C9FC9DF80430CD
:10310000012BEFD93F4C6168022000F02CFC2146D6
:103110006068FFF77BFF18B9142222800022A27397
:10312000384B1B88063B9BB2802B04D9354B0022C1
:103130009A7314221A80334B02221A8116228DF8B8
:10314000042001228DF805201B881A0A8DF806201C
:103150008DF8073001A9042000F08BFC274B1B6879
:10316000002BA5D1BDF802309BB202339BB2ADF863
:103170000230244C208823896168C01A1944C0B2E7
:1031800000F0F1FBFFF76EFF2073FFF769FF60733C
:10319000A37B73B9022000F0FAFB032000F0CDFB03
:1031A000194B1B68002B83D0BDF8020080B29847F2
:1031B0007EE7FFF75BFFA073ECE7104B1B6883B162
:1031C000BDF802309BB20A3B9BB2ADF802300C4B0B
:1031D0001B68002B3FF46CAFBDF8020080B298472B
:1031E00066E7094B1B68002B3FF462AFBDF8020095
:1031F00080B298475CE700BFA0050020BC030C42EA
:10320000A4050020100000209C050020262909D0DC
:1032100027291BD030B585B00C4698B301284FD074
:1032200005B030BD10B1012808D07047334AD2F83C
:10323000103123F40043C2F8103170472F4AD2F8FE
:10324000103123F48043C2F81031704710B10128C7
:103250000CD07047294B4FF40042C3F81C21D3F81F
:10326000102142F40042C3F810217047234B4FF461
:103270008042C3F81C21D3F8102142F48042C3F8E5
:10328000102170471D4DD5F8103123F40043C5F8C7
:103290001031002103910291019100910B460A46E1
:1032A000204600F012FB164B1C704FF40043C5F88B
:1032B0001C31D5F8103143F40043C5F81031AFE7A5
:1032C0000E4DD5F8103123F48043C5F8103100209D
:1032D00003900290019000900346024600F0F5FA38
:1032E000074B5C704FF48043C5F81C31D5F81031A2
:1032F00043F48043C5F8103192E700BF00600040FE
:10330000A005002030B585B02F4B5B78DBB2222BB7
:1033100003D0232B24D005B030BD2C4B1B68002BD1
:10332000F9D015238DF8043000238DF8053001AB5A
:1033300002221946104600F0AAFB9DF80400244B17
:103340001A8981181B889942E5DC214C6168114477
:1033500000F009FB9DF80430228913442381DAE749
:103360001A4B1B68002BD6D0194B1C881B89E41AFA
:10337000A4B2D4B115238DF8043000238DF80530A4
:1033800001AB02221946104600F081FB9DF80500B2
:103390000028C0D085B2AC420CD20D4B59681B89B5
:1033A0001944E0B200F0D7FAB5E722210120FFF777
:1033B0002DFFB0E7064C61682389194400F0CBFA71
:1033C00023891D442581A6E7A0050020B8150C42DD
:1033D00010000020014B1860704700BF9C050020C2
:1033E00000B583B026210020FFF710FF2621012021
:1033F000FFF70CFF00F05CFB0023009302E0009B52
:1034000001330093009A094B9A42F8D900F058FB17
:103410000023019302E0019B01330193019A044BC5
:103420009A42F8D903B05DF804FB00BF9F86010003
:103430003F420F0008B5FCF7BDFF064B1B7803B1F8
:1034400008BD0122034B1A70022000F076FA00F04A
:10345000F5FAF5E7A205002008B5FCF7B1FF094B26
:103460001B7803B908BD0020064B18702621FFF712
:10347000CDFE26210120FFF7C9FE012000F05DFAF4
:10348000F0E700BFA205002070B58CB001213F48D5
:10349000FFF740F901213E48FFF73CF900230422E1
:1034A00008211046FFF76CFB012302220D210420A6
:1034B000FFF766FB002301220F211846FFF760FB90
:1034C000002301220E210420FFF75AFB31490F206F
:1034D00000F0D2FB30490E2000F0CEFB0F212F4B25
:1034E000C3F81C1100240194012500952B460A46BF
:1034F0002046FFF707FB019400952B460E2211464C
:103500000420FFF7FFFA264B602283F80B2383F891
:10351000012300F0A3FB26212046FFF777FE26219A
:103520002846FFF773FE1F4B26221A705A7000F0D0
:10353000DFFAFFF755FFFDF715F8089409940A9490
:103540000B9408A800F034F9BDF822309DF8202033
:103550009DF82810BDF826009DF824409DF82960AC
:103560000796069405900491039202930E4B0193E3
:10357000B62300930D4B0E4A05212846FDF72EFF7A
:103580000C4B1D70FFF768FF0CB070BD408104004C
:1035900000D20400953000000533000000600040B8
:1035A00000E100E0A0050020B09E0000A79E000002
:1035B000745E0000A205002010B50446044B1B7881
:1035C00013B1044B1C7010BDFFF734FFF9E700BFC7
:1035D000A20500209805002010B582B080291DD8D2
:1035E000184C00232381CAB201466068FFF717FD1B
:1035F00002462080144B1878382100F001F9012090
:1036000000F0C5F920883F2814D80E4C6168C0B27C
:1036100000F0A1F92388238102B010BD0B4B019368
:10362000F92300930A4B0B4A00210120FDF7D6FE37
:10363000FCF780FE6168402000F08DF94023238173
:10364000EAE700BF1000002098050020F89E000067
:10365000A79E0000745E000010B582B0104B187871
:10366000FCF7D8FF78B101240E4B1C7020210020FC
:10367000FFF7CCFD23212046FFF7C8FD052000F011
:103680005CF902B010BD084B019340F21113009396
:10369000064B074A00210120FDF7A0FEFCF74AFE79
:1036A00098050020A2050020189F0000A79E00009A
:1036B000745E000008B500F05EF908BD10B582B078
:1036C000174B1878FCF7A4FFE0B10124154B1C70D0
:1036D0001A210020FFF79AFD22212046FFF796FDD0
:1036E000022000F054F90E4B187803230193009345
:1036F00008236422194600F09DF8062000F01DF909
:1037000002B010BD084B019340F22D130093074BFC
:10371000074A00210120FDF761FEFCF70BFE00BF08
:1037200098050020A2050020189F0000A79E000019
:10373000745E000008B5082000F0FFF808BD000026
:1037400038B50D46074C94F90C101970617B049B39
:103750001970A17B059B197001466068FFF76EFC2C
:10376000287038BD1000002008B550B101280BD0DA
:1037700002280CD0074B18780022382100F040F8BE
:1037800008BDFCF727FFF5E7FCF7A6FEF2E7FCF71C
:10379000CBFEEFE79805002008B5FCF73DFF08BD1C
:1037A00008B5FCF76FFF08BD08B5FCF77FFF08BD43
:1037B00010B582B00446012002A901F8080D0B469D
:1037C000082200F064F9CCB19DF8003023709DF818
:1037D00001209DF8023003EB022363809DF8033043
:1037E00023719DF804209DF8053003EB0223E3804C
:1037F0009DF8063023729DF80730637202B010BD49
:1038000000B583B031238DF800308DF801008DF8BC
:103810000210130A8DF803308DF8042000238DF870
:1038200005308DF806306946072000F022F903B014
:103830005DF804FB10B582B032248DF800408DF89D
:1038400001008DF80210110A8DF803108DF8042084
:103850008DF805309DF810308DF806309DF8143045
:103860008DF807306946082000F003F902B010BD5A
:1038700010B582B01C4620238DF800308DF8010071
:103880008DF802108DF803206B460822694604204B
:1038900000F0FDF8BCB19DF8003023709DF80130B8
:1038A00063709DF80230A3709DF80330E3709DF8BB
:1038B000043023719DF8053063719DF80630A371C3
:1038C0009DF80730E37102B010BD30B583B0099C9C
:1038D00013258DF800508DF801008DF802108DF839
:1038E00003208DF804309DF818308DF805309DF8D0
:1038F0001C308DF806309DF820308DF807306B466F
:1039000007226946082000F0C2F8A4B19DF80030F3
:1039100023709DF8013063709DF80230A3709DF80C
:103920000330E3709DF8043023719DF80530637116
:103930009DF80630A37103B030BD00B583B03423C9
:103940008DF804308DF8050001A9022000F091F8EF
:1039500003B05DF804FB08B50B4602460021662063
:1039600000F05CF808BD08B50B4602460021772040
:1039700000F044F808BD00B583B002A9312301F876
:10398000043D012000F075F803B05DF804FB00B5BC
:1039900083B015238DF804308DF8050001A90220AD
:1039A00000F067F803B05DF804FB000070B582B06A
:1039B00005460E4602AC002304F8013D00F088F8ED
:1039C000442000F0D9F8204600F0E4F89DF80730D4
:1039D000FF2B02D000F084F8ECE73DB900F080F84E
:1039E0000122054B1A70FF2002B070BD31462846F7
:1039F00000F000F9F2E700BF2E06002070B5064681
:103A000014461D4600F064F8304600F0B5F829462B
:103A1000204600F0EFF800F063F870BD70B5064680
:103A200014461D4600F054F8304600F0A5F829462B
:103A3000204600F0C5F800F053F870BD10B582B014
:103A400000238DF807300DE002AC002304F8013D9F
:103A500000F03EF8442000F08FF8204600F09AF87D
:103A600000F03EF89DF80730FF2BEDD1FF2002B0AB
:103A700010BD38B504460D46FFF7E0FF00F028F80A
:103A80002946204600F09CF800F02AF838BD38B5E9
:103A900014461D46FFF7EDFF29462046FFF786FF37
:103AA00038BD0000014B1868C0B27047B4150C4215
:103AB0004FF48072014BC3F8A020704700600040B3
:103AC0004FF48072014BC3F8A4207047006000409F
:103AD0004FF40072014BC3F8A4207047006000400F
:103AE0004FF40072014BC3F8A02070470060004003
:103AF00030B587B001211C48FEF70CFE01211B48A0
:103B0000FEF708FE012304220A211046FFF738F8C9
:103B100001231A460B210420FFF732F80123042267
:103B20000C211046FFF72CF801230422092110462E
:103B3000FFF726F86C460E4D0FCD0FC495E8030035
:103B400084E803000B4C69462046FFF78BF90B23F2
:103B50006365236823F48053236005212046FFF723
:103B600033F907B030BD00BF0002040000D20400EA
:103B70002C9F000000C0004008B501460448FFF734
:103B8000A9F9034B1B6913F0200FFAD008BD00BF41
:103B900000C0004010B504460848C36843F4006301
:103BA000C360FF21FFF796F9044B1B6913F0200F48
:103BB000FAD00248FFF787F9207010BD00C000401E
:103BC00070B505460E460A4AD36843F48063D36055
:103BD000002405E0315D0648FFF77CF90134E4B2CA
:103BE000AC42F7D3024B1B6913F0200FFAD070BD23
:103BF00000C0004070B505460E460C4AD36843F439
:103C00000063D36000240EE0FF210848FFF762F94B
:103C1000064B1B6913F0200FFAD00448FFF753F945
:103C200030550134E4B2AC42EED370BD00C0004068
:103C300010B5044674B194FAA4F0B0FA80F00123F0
:103C4000834024EA0304044B53F82030002BF1D0C6
:103C50009847EFE710BD00BF30060020054B4FF43A
:103C60000062C3F880211A600222C3F880211A6022
:103C7000704700BF00E100E038B504460D46FEF78E
:103C8000ECFE034B43F82450FEF7EBFE38BD00BFBB
:103C90003006002008B5084BD3F81001D3F81421E2
:103CA000104020F42A5020F02A004004400CC3F8B1
:103CB0001C01FFF7BDFF08BD0060004008B5084BC0
:103CC000D3F81001D3F81421104020F4AA4020F0BA
:103CD00055000004000CC3F81C01FFF7A9FF08BD44
:103CE0000060004010B58AB0044614E014F8011BCF
:103CF0000AAA1A4402F8101C0133DBB28342F5D33E
:103D00000DF10703012206A9FFF7C1FEFF2819D113
:103D1000FFF7C8FE30B1207890B1013410280ED8DA
:103D20000023EBE702AB002211461046FFF7A0FD8F
:103D30009DF80E3013F0080FEDD0042000E00420B1
:103D40000AB010BD0220FBE71FB51C46094B1B68DB
:103D50000546D86852B1084B02928DE80A00224607
:103D60002B46064900F022F800F06EFC044B1A4680
:103D7000F2E700BF20000020449F0000519F000098
:103D80007F9F000008B5074B044613B10021AFF335
:103D90000080054B1868836A03B19847204602F0FB
:103DA0002DF800BF00000000809F00000EB403B596
:103DB000014603AB054853F8042B0068019300F05B
:103DC00083F802B05DF804EB03B0704720000020D8
:103DD00070B50D4E0D4CA41BA4100025A54209D1B1
:103DE0000B4E0C4C02F00CF8A41BA4100025A542AD
:103DF00005D170BD56F8253098470135EEE756F8E5
:103E0000253098470135F2E7840000208400002027
:103E1000840000208800002010B5431E0A4491420F
:103E200000D110BD11F8014B03F8014FF7E78842AC
:103E300010B501EB020303D8421E99420CD110BD0C
:103E40009842F9D28118D21AD34200D110BD13F88A
:103E5000014D01F8014DF7E711F8014B02F8014F50
:103E6000EBE702440346934200D1704703F8011B7D
:103E7000F9E79368013B002B10B4936009DA946969
:103E8000A34202DBCBB20A2B03D15DF8044B00F056
:103E90001BBB1368581C10601970C8B25DF8044B46
:103EA0007047F8B506460F461446D518AC4201D106
:103EB000002007E03A4614F8011B3046FFF7D9FF0F
:103EC000431CF3D1F8BD00002DE9F04F9DB00C4626
:103ED00017460393064618B183690BB900F0AEFC90
:103EE0007C4B9C4257D17468A38918075DD5236920
:103EF000002B5AD00023099320238DF8293030233A
:103F00008DF82A304FF0010BB846454615F8013BB5
:103F1000002B55D1B8EB070A0BD053463A46214641
:103F20003046FFF7BEFF013000F0C480099B5344C8
:103F3000099398F80030002B00F0BC8000234FF06C
:103F4000FF3204930793059206938DF853301A932A
:103F500005222978604800F063FD05F10108049B03
:103F6000002831D1D90644BF20228DF853201A07EA
:103F700044BF2B228DF853202A782A2A2CD0079A66
:103F800000210A20A846013598F80030303B092B63
:103F90006DD971B326E0514B9C4201D1B468A3E7BF
:103FA0004F4B9C4208BFF4689EE72146304600F024
:103FB000DDFA00289ED04FF0FF301DB0BDE8F08F35
:103FC000252BA7D0A846A0E7434A801A0BFA00F099
:103FD000184304904546BBE7039A111D12680391EC
:103FE000002A01DB079204E0524243F002030792E9
:103FF000049398F800302E2B10D198F801302A2B1A
:1040000008F1010137D1039B1A1D1B680392002B95
:10401000B8BF4FF0FF3308F102080593314D98F80F
:1040200000100322284600F0FBFC40B14023401B57
:1040300003FA00F0049B0343049308F1010898F885
:10404000001029488DF82810062208F1010700F019
:10405000E7FC002834D0254B03BB039B073323F038
:10406000070308330393099B4B4409934CE700FB78
:104070000232012186E70023059318460A25884667
:10408000013198F80020303A092A03D9002BC5D015
:104090000590C3E705FB00200123F0E703AB009385
:1040A0002246134B04A93046AFF30080B0F1FF3F26
:1040B0008146D8D1A3895B063FF57DAF09987CE79F
:1040C00003AB009322460A4B04A9304600F088F85F
:1040D000ECE700BFD89F0000849F0000F89F00001D
:1040E000B89F00008A9F00008E9F00000000000023
:1040F000A33E00002DE9F04791461F468A680B69F0
:10410000DDF820809342B8BF1346C9F8003091F81B
:10411000432006460C4612B10133C9F8003023682B
:10412000990642BFD9F800300233C9F8003025683B
:1041300015F0060507D104F1190AE368D9F8002043
:104140009B1A9D4229DB94F843302268003318BF44
:10415000012392062ED404F1430239463046C0476B
:10416000013021D02368E568D9F8002003F0060368
:10417000042B08BFAD1AA36822690CBF25EAE575B8
:1041800000259342C4BF9B1AED184FF000091A3462
:104190004D451BD10020BDE8F0870123524639462A
:1041A0003046C047013003D14FF0FF30BDE8F08703
:1041B0000135C2E7E1185A1C302081F8430022443F
:1041C00094F8451082F843100233C4E701232246D5
:1041D00039463046C0470130E6D009F10109D7E73A
:1041E0002DE9F04317460A7E85B06E2A98460646AA
:1041F0000C460C9B01F1430E00F0BC801AD8632AD8
:104200002ED00AD8002A00F0C880582A00F08A80F0
:1042100004F1420584F842202AE0642A01D0692A88
:10422000F6D121681A6811F0800F23D0111D196092
:10423000136827E0732A00F0B48008D86F2A2AD0C8
:10424000702AE5D10A6842F020020A6003E0752A6C
:1042500021D0782ADCD1782284F845206E4964E0A8
:104260001A6801F14205111D1960136884F8423083
:104270000123A3E011F0400F02F104011960D7D02F
:10428000B2F90030002B03DA2D225B4284F8432080
:1042900062490A2217E02068196810F0800F03D0E5
:1042A000081D18600B6806E010F0400F01F10400D3
:1042B0001860F7D00B8859496F2A14BF0A220822C8
:1042C000002084F843006568A560002DC0F29C8042
:1042D000206820F004002060002B3FD1002D40F02A
:1042E00095807546082A0BD12368DA0708D523691B
:1042F00062689A42DEBF302305F8013C05F1FF35C4
:10430000AEEB05032361CDF800803B4603AA2146AE
:104310003046FFF7EFFE013055D14FF0FF3005B0CA
:10432000BDE8F08381F845203C492268186812F006
:10433000800F00F104051D6001D0036802E05506FE
:10434000FBD50388D00744BF42F0200222601BB98E
:10435000226822F0200222601022B1E77546B3FBEA
:10436000F2F002FB1033CB5C05F8013D0346002858
:10437000F5D1B7E708681A68496910F0800F04D0D2
:10438000101D18601368196007E010F0400F02F16B
:10439000040018601368F6D0198000232361754665
:1043A000B1E71A68111D1960156862680021284676
:1043B00000F036FB08B1401B606063682361002396
:1043C00084F843309FE723692A4639463046C04780
:1043D0000130A2D023689B0707D5002504F11909F5
:1043E000E368039A9B1A9D4205DBE068039B9842B1
:1043F000B8BF184693E701234A4639463046C047BE
:1044000001308AD00135EBE7002BA7D10B7884F877
:10441000423004F1420565E7A69F0000959F000029
:104420000FB40A4B13B51C6824B1A36913B9204615
:1044300000F004FA05AB049AA16801932046FFF747
:1044400043FD02B0BDE8104004B0704720000020DA
:104450000EB400B59CB04FF402711DABADF8141052
:10446000029006906FF000410A48049107914FF6C0
:10447000FF7153F8042BADF816100068019302A9E0
:1044800000F04CFC029B00221A701CB05DF804EB9B
:1044900003B070472000002010B5024613460132D9
:1044A0001C78002CFAD1013B11F8012B03F8012FE5
:1044B000002AF9D110BD034613F8012B002AFBD1C5
:1044C000181A013870470000F8B50E461446054624
:1044D00018B183690BB900F0B1F9214B9C422AD184
:1044E0006C68A369A360A3891A072ED5236963B3F7
:1044F00023692068C01A6369F6B29842374604DB24
:104500002146284600F030F928BBA368013BA36090
:1045100023685A1C22601E7063690130984204D0DF
:10452000A389DB0719D50A2E17D12146284600F0AA
:104530001BF990B10FE00B4B9C4201D1AC68D0E766
:10454000094B9C4208BFEC68CBE72146284600F0A7
:104550000DF80028CCD04FF0FF373846F8BD00BF2B
:10456000D89F0000F89F0000B89F0000324B70B544
:104570001D6806460C4625B1AB6913B9284600F004
:104580005DF92E4B9C420FD16C68B4F90C309AB295
:1045900015072CD4D00611D40922326043F0400311
:1045A000A3814FF0FF3070BD254B9C4201D1AC6818
:1045B000EBE7244B9C4208BFEC68E6E7510712D5B5
:1045C000616B41B104F14403994202D0304600F0DE
:1045D00077FA00236363A38923F02403A3810023D4
:1045E000636023692360A38943F00803A3812369DF
:1045F0004BB9A38903F42073B3F5007F03D02146A0
:10460000304600F0C9F9A28912F001030CD0002352
:10461000A36063695B42A361236953B9B4F90C30A9
:1046200013F08000BAD170BD920758BF6369A360D0
:10463000F2E70020F7E700BF20000020D89F00002D
:10464000F89F0000B89F000008B5062000F092FC1B
:10465000012001F0D3FB00008A892DE9F0410546D5
:1046600010070C465AD44B68002B05DC0B6C002B52
:1046700002DC0020BDE8F081E66A002EF9D00023BC
:1046800012F480522F682B6033D0606DA3895A07D3
:1046900005D56368C01A636B0BB1236CC01A002385
:1046A0000246E66A216A2846B047431CA38906D120
:1046B00029681D294BD82B4ACA40D60747D5002266
:1046C0006260D9042269226004D5421C01D12B68A2
:1046D00003B96065616B2F600029CAD004F14403FF
:1046E000994202D0284600F0EBF900206063BDE853
:1046F000F081216A01232846B047411CC6D12B68AE
:10470000002BC3D01D2B01D0162B01D12F60B0E799
:10471000A38943F04003A381BDE8F0810F69002F16
:10472000A7D093070E6808BF4B690F6018BF00231E
:10473000A6EB07088B60B8F1000F9ADD43463A46B6
:10474000216AA66A2846B047002807DCA38943F0FF
:104750004003A3814FF0FF30BDE8F0810744A8EB90
:104760000008E8E70100402038B50B6905460C4613
:10477000DBB118B183690BB900F060F80C4B9C42B7
:1047800009D16C68B4F90C307BB121462846BDE8EC
:104790003840FFF761BF074B9C4201D1AC68F1E79D
:1047A000054B9C4208BFEC68ECE7002038BD00BF19
:1047B000D89F0000F89F0000B89F0000014900F05A
:1047C000A9B800BF69470000002310B50446036084
:1047D0004360836081814366C28103614361836179
:1047E000194608225C30FFF73CFB054B6362054B22
:1047F000A362054BE362054B2462236310BD00BF37
:10480000AD4F0000CF4F0000075000002B500000BC
:1048100070B54A1E682555430E4605F1740100F037
:104820009DF9044640B1002180E842000C30A060B0
:1048300005F16802FFF715FB204670BD836910B5CE
:10484000044633BB8364C3640365124B124A1B687E
:104850008262984204BF0123836100F01FF8606008
:10486000204600F01BF8A060204600F017F8002258
:10487000E06004216068FFF7A7FF01220921A0681A
:10488000FFF7A2FF02221221E068FFF79DFF01233C
:10489000A36110BD809F0000BD470000F8B51C4B10
:1048A0001E68B369074613B93046FFF7C7FF48369D
:1048B000B4687368013B03D5336833B13668F7E7F2
:1048C000B4F90C506DB16834F4E704213846FFF7B1
:1048D0009FFF30600028F1D10C233B600446204646
:1048E000F8BD4FF6FF73E3810123A3816566256060
:1048F000A560656025616561A5610822294604F10E
:104900005C00FFF7AEFA6563A563A564E564E6E7BE
:10491000809F00002DE9F8438046894600F1480455
:10492000002614B93046BDE8F883A5686768013FE2
:1049300001D52468F5E7AB89012B07D9B5F90E300D
:10494000013303D029464046C84706436835EEE7A1
:1049500070B50E46B1F90E10002990B014461D46F0
:1049600007DA00232B60B3891A0610D44FF4806352
:104970000EE001AA00F080FB0028F2DB029A02F4AC
:104980007042A2F500535A425A412A60EEE7402392
:104990000020236010B070BD8B8973B59D0706465B
:1049A0000C4607D504F147032360236101236361AB
:1049B00002B070BD01AB6A46FFF7CAFF0099054619
:1049C000304600F0CBF848B9B4F90C309A05EFD472
:1049D00023F0030343F00203A381E3E70D4BB3622B
:1049E000A389206043F08003A381009B6361019B46
:1049F00020615BB1B4F90E10304600F04FFB28B1D6
:104A0000A38923F0030343F00103A381A3891D437A
:104A1000A581CDE7BD4700000000000000000000B8
:104A200001F0FF01102A2BDB10F0070F08D010F85F
:104A3000013B013A8B422DD010F0070F42B3F6D163
:104A4000F0B441EA012141EA014122F007047FF07C
:104A500000070023F0E80256083C85EA010586EAD3
:104A6000010685FA47F5A3FA87F586FA47F6A5FA0F
:104A700087F68EB9EED1F0BC01F0FF0102F007021B
:104A800032B110F8013B013A83EA010313B1F8D1C6
:104A90000020704701387047002D06BF35460338A7
:104AA000073815F0010F07D1013015F4807F02BFE0
:104AB000013015F4C03F0130F0BC0138704700BF31
:104AC00038B50546002945D051F8043C0C1F002B91
:104AD000B8BFE41800F004FB1F4A1368104633B94E
:104AE000636014602846BDE8384000F0FABAA3427B
:104AF0000CD921686218934204BF1A685B6863602E
:104B000004BF521822600460ECE713465A680AB1E9
:104B1000A242FAD919685818A0420BD12068014462
:104B2000581882421960DDD1106852685A600144F9
:104B30001960D7E702D90C232B60D3E7206821182E
:104B40008A4204BF11685268626004BF091821607C
:104B50005C60C7E738BD00BF7006002070B5CD1C93
:104B600025F0030508350C2D38BF0C25002D064611
:104B700001DBA94203D90C233360002070BD00F093
:104B8000AFFA234A1468214691B9224C23681BB915
:104B9000304600F0B7F920602946304600F0B2F9FF
:104BA000431C26D10C233360304600F09AFAE4E728
:104BB0000B685B1B1AD40B2B0FD90B60CD50CC1894
:104BC000304600F08EFA04F10B00231D20F00700A0
:104BD000C31A1BD05A42E25070BD8C420DBF6368AD
:104BE0004B686360136018BF0C46E9E70C464968E0
:104BF000CAE7C41C24F00304A04205D0211A3046A1
:104C000000F080F90130CDD02560D9E770BD00BF3C
:104C10007006002074060020F8B5074614460E46BC
:104C200021B91146BDE8F840FFF798BF22B9FFF758
:104C300047FF25462846F8BD00F054FA84420FD9B4
:104C400021463846FFF78AFF05460028F2D0314654
:104C50002246FFF7E1F831463846FFF731FFE9E732
:104C60003546E7E72DE9F0478E689E4282460C46BE
:104C70009146984635D88A8912F4906F31D02568CC
:104C800009696F1A6569022305EB450595FBF3F584
:104C900008F101033B449D4238BF1D46530531D501
:104CA0002946FFF75BFF064650B90C23CAF80030CF
:104CB000A38943F04003A3814FF0FF30BDE8F087A4
:104CC0003A462169FFF7A8F8A38923F4906343F0DB
:104CD0008003A381266165613E44ED1B2660A560CB
:104CE0004646464528BF4646324649462068FFF7B5
:104CF0009EF8A3689B1BA36023681E4426600020C7
:104D0000BDE8F0872A46FFF787FF06460028E1D175
:104D100021695046FFF7D4FEC7E700002DE9F04FA8
:104D20009DB0804603938B891C060D4616460FD511
:104D30000B696BB94021FFF711FF2860286128B982
:104D40000C23C8F800304FF0FF30C5E040236B6102
:104D50000023099320238DF8293030238DF82A3041
:104D60004FF0010B37463C4614F8013B002B3CD179
:104D7000B7EB060A0BD05346324629464046FFF7AA
:104D800071FF013000F0A380099B534409933B78E5
:104D9000002B00F09C8000234FF0FF320493079318
:104DA000059206938DF853301A93052221785048C6
:104DB000FFF736FE671C049BD8B9D90644BF2022F2
:104DC0008DF853201A0744BF2B228DF853202278E8
:104DD0002A2A16D0079A00210A20274601343B7858
:104DE000303B092B51D9C9B111E0252BC0D0274642
:104DF000B9E73F4A801A0BFA00F0184304903C468A
:104E0000D3E7039A111D12680391002A01DB079270
:104E100004E0524243F00203079204933B782E2BA6
:104E20000ED17B782A2B07F1010132D1039B1A1D89
:104E30001B680392002BB8BF4FF0FF330237059376
:104E40002C4C397803222046FFF7EAFD38B1402385
:104E5000001B03FA00F0049B0343049301373978E5
:104E600025488DF8281006227E1CFFF7D9FD002862
:104E700035D0224BFBB9039B073323F007030833DC
:104E80000393099B4B4409936CE700FB0232012119
:104E9000A3E70023059318460A240F4601313A7808
:104EA000303A092A03D9002BCAD00590C8E704FB81
:104EB00000200123F1E703AB00932A46104B04A91D
:104EC0004046AFF30080B0F1FF3F8146D9D1AB89B6
:104ED0005B063FF538AF09981DB0BDE8F08F03AB16
:104EE00000932A46064B04A94046FFF779F9EAE702
:104EF000849F00008A9F00008E9F00000000000039
:104F0000654C000038B5064C002305460846236072
:104F100000F05EFF431C02D1236803B12B6038BD53
:104F20007C0600201F2938B504460D4604D91623F7
:104F300003604FF0FF3038BD426C12B152F821309F
:104F40004BB9204600F030F82A4601462046BDE81D
:104F5000384000F017B8012B0AD0591C03D1162392
:104F60000360012038BD002442F8254028469847B8
:104F7000002038BD024B01461868FFF7D3BF00BFC1
:104F80002000002038B5074C00230546084611468E
:104F9000236000F005FF431C02D1236803B12B609E
:104FA00038BD00BF7C06002000F0EABE10B50C46FC
:104FB000B1F90E1000F0A0F80028ABBF636DA38913
:104FC0001B1823F48053ACBF6365A38110BD2DE98A
:104FD000F0411F468B89DB0505460C46164605D574
:104FE00002230022B1F90E1000F068F8A389B4F989
:104FF0000E1023F48053A38132463B462846BDE879
:10500000F04100F017B810B50C46B1F90E1000F0E1
:1050100055F8431CA38915BF606523F4805343F4FE
:105020008053A38118BFA38110BDB1F90E1000F009
:1050300013B8000038B5074C054608461146002253
:1050400022601A4600F0D2FE431C02D1236803B14D
:105050002B6038BD7C06002038B5064C0023054681
:105060000846236000F07CFE431C02D1236803B194
:105070002B6038BD7C06002038B5074C0023054660
:1050800008461146236000F073FE431C02D12368DA
:1050900003B12B6038BD00BF7C06002038B5064C3C
:1050A000002305460846236000F072FE431C02D12F
:1050B000236803B12B6038BD7C06002038B5074C4F
:1050C000054608461146002222601A4600F070FE8E
:1050D000431C02D1236803B12B6038BD7C0600203D
:1050E0007047704751F8040C0028A0F10400BCBFC1
:1050F0000B58C0187047000038B5074C05460846E5
:105100001146002222601A4600F05AFE431C02D1CA
:10511000236803B12B6038BD7C06002081F000417C
:1051200002E000BF83F0004330B54FEA41044FEA8C
:10513000430594EA050F08BF90EA020F1FBF54EA27
:10514000000C55EA020C7FEA645C7FEA655C00F0C3
:10515000E2804FEA5454D4EB5555B8BF6D420CDD94
:105160002C4480EA020281EA030382EA000083EA17
:10517000010180EA020281EA0303362D88BF30BDB7
:1051800011F0004F4FEA01314FF4801C4CEA11310D
:1051900002D0404261EB410113F0004F4FEA03336C
:1051A0004CEA133302D0524263EB430394EA050FF7
:1051B00000F0A780A4F10104D5F1200E0DDB02FA66
:1051C0000EFC22FA05F2801841F1000103FA0EF2FA
:1051D000801843FA05F359410EE0A5F120050EF1C0
:1051E000200E012A03FA0EFC28BF4CF0020C43FAF1
:1051F00005F3C01851EBE37101F0004507D54FF0FE
:10520000000EDCF1000C7EEB00006EEB0101B1F54D
:10521000801F1BD3B1F5001F0CD349085FEA300093
:105220004FEA3C0C04F101044FEA445212F5800F9E
:1052300080F09A80BCF1004F08BF5FEA500C50F13B
:10524000000041EB045141EA050130BD5FEA4C0C1E
:10525000404141EB010111F4801FA4F10104E9D1A7
:1052600091F0000F04BF01460020B1FA81F308BF9E
:105270002033A3F10B03B3F120020CDA0C3208DD6A
:1052800002F1140CC2F10C0201FA0CF021FA02F145
:105290000CE002F11402D8BFC2F1200C01FA02F1B5
:1052A00020FA0CFCDCBF41EA0C019040E41AA2BFDA
:1052B00001EB0451294330BD6FEA04041F3C1CDAA2
:1052C0000C340EDC04F11404C4F1200220FA04F0C2
:1052D00001FA02F340EA030021FA04F345EA03016C
:1052E00030BDC4F10C04C4F1200220FA02F001FA2E
:1052F00004F340EA0300294630BD21FA04F02946B0
:1053000030BD94F0000F83F4801306BF81F4801148
:105310000134013D4EE77FEA645C18BF7FEA655CBB
:1053200029D094EA050F08BF90EA020F05D054EA8D
:10533000000C04BF1946104630BD91EA030F1EBF92
:105340000021002030BD5FEA545C05D14000494196
:1053500028BF41F0004130BD14F580043CBF01F589
:10536000801130BD01F0004545F0FE4141F470016F
:105370004FF0000030BD7FEA645C1ABF194610464A
:105380007FEA655C1CBF0B46024650EA013406BF4B
:1053900052EA033591EA030F41F4002130BD00BF0A
:1053A00090F0000F04BF0021704730B54FF48064C7
:1053B00004F132044FF000054FF0000150E700BF48
:1053C00090F0000F04BF0021704730B54FF48064A7
:1053D00004F1320410F0004548BF40424FF0000194
:1053E0003EE700BF42004FEAE2014FEA31014FEAD7
:1053F00002701FBF12F07F4393F07F4F81F0605126
:10540000704792F0000F14BF93F07F4F704730B594
:105410004FF4607401F0004521F0004120E700BF27
:1054200050EA010208BF704730B54FF000050AE0AE
:1054300050EA010208BF704730B511F0004502D5AF
:10544000404261EB41014FF4806404F132045FEAB1
:10545000915C3FF4DCAE4FF003025FEADC0C18BF56
:1054600003325FEADC0C18BF033202EBDC02C2F14C
:10547000200300FA03FC20FA02F001FA03FE40EADE
:105480000E0021FA02F11444C1E600BF70B54FF0DE
:10549000FF0C4CF4E06C1CEA11541DBF1CEA1355C0
:1054A00094EA0C0F95EA0C0F00F0DEF82C4481EA28
:1054B000030621EA4C5123EA4C5350EA013518BF48
:1054C00052EA033541F4801143F4801338D0A0FB35
:1054D00002CE4FF00005E1FB02E506F00042E0FBE2
:1054E00003E54FF00006E1FB03569CF0000F18BFE8
:1054F0004EF0010EA4F1FF04B6F5007F64F5407490
:1055000004D25FEA4E0E6D4146EB060642EAC62122
:1055100041EA55514FEAC52040EA5E504FEACE2E8F
:10552000B4F1FD0C88BFBCF5E06F1ED8BEF1004F92
:1055300008BF5FEA500E50F1000041EB045170BD0E
:1055400006F0004646EA010140EA020081EA030152
:10555000B4EB5C04C2BFD4EB0C0541EA045170BD4E
:1055600041F480114FF0000E013C00F3AB8014F1C8
:10557000360FDEBF002001F0004170BDC4F1000411
:10558000203C35DA0C341BDC04F11404C4F1200592
:1055900000FA05F320FA04F001FA05F240EA0200ED
:1055A00001F0004221F0004110EBD37021FA04F623
:1055B00042EB06015EEA430E08BF20EAD37070BDDD
:1055C000C4F10C04C4F1200500FA04F320FA05F03C
:1055D00001FA04F240EA020001F0004110EBD3703E
:1055E00041F100015EEA430E08BF20EAD37070BDAE
:1055F000C4F1200500FA05F24EEA020E20FA04F387
:1056000001FA05F243EA020321FA04F001F0004135
:1056100021FA04F220EA020000EBD3705EEA430EA6
:1056200008BF20EAD37070BD94F0000F0FD101F0D5
:105630000046400041EB010111F4801F08BF013C0E
:10564000F7D041EA060195F0000F18BF704703F04C
:105650000046520043EB030313F4801F08BF013DD3
:10566000F7D043EA0603704794EA0C0F0CEA13558F
:1056700018BF95EA0C0F0CD050EA410618BF52EA49
:105680004306D1D181EA030101F000414FF000004F
:1056900070BD50EA410606BF1046194652EA43065D
:1056A00019D094EA0C0F02D150EA013613D195EAD1
:1056B0000C0F05D152EA03361CBF104619460AD119
:1056C00081EA030101F0004141F0FE4141F4700123
:1056D0004FF0000070BD41F0FE4141F4780170BD13
:1056E00070B54FF0FF0C4CF4E06C1CEA11541DBF78
:1056F0001CEA135594EA0C0F95EA0C0F00F0A7F87A
:10570000A4EB050481EA030E52EA03354FEA0131A6
:1057100000F088804FEA03334FF0805545EA1313B9
:1057200043EA12634FEA022245EA111545EA106581
:105730004FEA00260EF000419D4208BF964244F118
:10574000FD0404F5407402D25B084FEA3202B61A37
:1057500065EB03055B084FEA32024FF480104FF40B
:10576000002CB6EB020E75EB030E22BFB61A75467F
:1057700040EA0C005B084FEA3202B6EB020E75EB12
:10578000030E22BFB61A754640EA5C005B084FEA7A
:105790003202B6EB020E75EB030E22BFB61A754647
:1057A00040EA9C005B084FEA3202B6EB020E75EB52
:1057B000030E22BFB61A754640EADC0055EA060E13
:1057C00018D04FEA051545EA16754FEA06164FEA56
:1057D000C30343EA52734FEAC2025FEA1C1CC0D102
:1057E00011F4801F0BD141EA00014FF000004FF08F
:1057F000004CB6E711F4801F04BF01430020B4F150
:10580000FD0C88BFBCF5E06F3FF6AFAEB5EB030C07
:1058100004BFB6EB020C5FEA500C50F1000041EB04
:10582000045170BD0EF0004E4EEA113114EB5C04D1
:10583000C2BFD4EB0C0541EA045170BD41F48011A4
:105840004FF0000E013C90E645EA060E8DE60CEAAC
:10585000135594EA0C0F08BF95EA0C0F3FF43BAFC9
:1058600094EA0C0F0AD150EA01347FF434AF95EA80
:105870000C0F7FF425AF104619462CE795EA0C0F64
:1058800006D152EA03353FF4FDAE1046194622E731
:1058900050EA410618BF52EA43067FF4C5AE50EA0B
:1058A00041047FF40DAF52EA43057FF4EBAE12E7FB
:1058B0004FF0FF3C06E000BF4FF0010C02E000BFDC
:1058C0004FF0010C4DF804CD4FEA410C7FEA6C5CBF
:1058D0004FEA430C18BF7FEA6C5C1BD001B050EA62
:1058E000410C0CBF52EA430C91EA030F02BF90EA4D
:1058F000020F0020704710F1000F91EA030F58BF0C
:10590000994208BF90422CBFD8176FEAE37040F06D
:10591000010070474FEA410C7FEA6C5C02D150EA0B
:10592000013C07D14FEA430C7FEA6C5CD6D152EAC6
:10593000033CD3D05DF8040B704700BF844610468B
:1059400062468C461946634600E000BF01B5FFF78A
:10595000B7FF002848BF10F1000F01BD4DF808ED5A
:10596000FFF7F4FF0CBF012000205DF808FB00BF2B
:105970004DF808EDFFF7EAFF34BF012000205DF885
:1059800008FB00BF4DF808EDFFF7E0FF94BF0120D2
:1059900000205DF808FB00BF4DF808EDFFF7CEFFD3
:1059A00094BF012000205DF808FB00BF4DF808ED12
:1059B000FFF7C4FF34BF012000205DF808FB00BFE3
:1059C0004FEA410212F5001215D211D56FF4787327
:1059D000B3EB625212D94FEAC12343F0004343EACA
:1059E000505311F0004F23FA02F018BF40427047A5
:1059F0004FF00000704750EA013005D111F000402F
:105A000008BF6FF0004070474FF00000704700BFC4
:105A10004A0011D212F5001211D20DD56FF478732D
:105A2000B3EB62520ED44FEAC12343F0004343EA82
:105A3000505323FA02F070474FF00000704750EACD
:105A4000013002D14FF0FF3070474FF00000704737
:105A500053B94AB9002908BF00281CBF4FF0FF31D5
:105A60004FF0FF3000F07AB9ADF1080C6DE904CECB
:105A700000F006F8DDF804E0DDE9022304B0704729
:105A80002DE9F0478C460D460446089E002B51D167
:105A90008A4217466DD9B2FA82FEBEF1000F0BD0D2
:105AA000CEF1200C01FA0EF520FA0CFC02FA0EF7EA
:105AB0004CEA050C00FA0EF44FEA174A250CBCFB21
:105AC000FAF81FFA87F90AFB18CC45EA0C4508FBDF
:105AD00009F3AB420AD9ED1908F1FF3280F02381B6
